{
  "_format": "hh-sol-artifact-1",
  "contractName": "DecentralizedDNS",
  "sourceName": "contracts/DecentralizedDNS.sol",
  "abi": [
    {
      "anonymous": false,
      "inputs": [
        {
          "indexed": false,
          "internalType": "string",
          "name": "domain",
          "type": "string"
        },
        {
          "indexed": true,
          "internalType": "address",
          "name": "owner",
          "type": "address"
        }
      ],
      "name": "DomainRegistered",
      "type": "event"
    },
    {
      "anonymous": false,
      "inputs": [
        {
          "indexed": false,
          "internalType": "string",
          "name": "domain",
          "type": "string"
        },
        {
          "indexed": true,
          "internalType": "address",
          "name": "newAddress",
          "type": "address"
        }
      ],
      "name": "DomainUpdated",
      "type": "event"
    },
    {
      "inputs": [
        {
          "internalType": "string",
          "name": "",
          "type": "string"
        }
      ],
      "name": "domains",
      "outputs": [
        {
          "internalType": "address",
          "name": "owner",
          "type": "address"
        },
        {
          "internalType": "address",
          "name": "resolver",
          "type": "address"
        }
      ],
      "stateMutability": "view",
      "type": "function"
    },
    {
      "inputs": [
        {
          "internalType": "string",
          "name": "domain",
          "type": "string"
        },
        {
          "internalType": "address",
          "name": "resolver",
          "type": "address"
        }
      ],
      "name": "register",
      "outputs": [],
      "stateMutability": "nonpayable",
      "type": "function"
    },
    {
      "inputs": [
        {
          "internalType": "string",
          "name": "domain",
          "type": "string"
        }
      ],
      "name": "resolve",
      "outputs": [
        {
          "internalType": "address",
          "name": "",
          "type": "address"
        }
      ],
      "stateMutability": "view",
      "type": "function"
    },
    {
      "inputs": [
        {
          "internalType": "string",
          "name": "domain",
          "type": "string"
        },
        {
          "internalType": "address",
          "name": "newResolver",
          "type": "address"
        }
      ],
      "name": "updateDomain",
      "outputs": [],
      "stateMutability": "nonpayable",
      "type": "function"
    }
  ],
  "bytecode": "0x608060405234801561001057600080fd5b506109b5806100206000396000f3fe608060405234801561001057600080fd5b506004361061004c5760003560e01c80631e59c52914610051578063264492351461006d578063461a44781461009e578063b5dd3c7d146100ce575b600080fd5b61006b600480360381019061006691906106bb565b6100ea565b005b61008760048036038101906100829190610717565b6102dc565b60405161009592919061076f565b60405180910390f35b6100b860048036038101906100b39190610717565b610356565b6040516100c59190610798565b60405180910390f35b6100e860048036038101906100e391906106bb565b6103a0565b005b600073ffffffffffffffffffffffffffffffffffffffff166000836040516101129190610824565b908152602001604051809103902060000160009054906101000a900473ffffffffffffffffffffffffffffffffffffffff1673ffffffffffffffffffffffffffffffffffffffff161461019a576040517f08c379a000000000000000000000000000000000000000000000000000000000815260040161019190610898565b60405180910390fd5b60405180604001604052803373ffffffffffffffffffffffffffffffffffffffff1681526020018273ffffffffffffffffffffffffffffffffffffffff168152506000836040516101eb9190610824565b908152602001604051809103902060008201518160000160006101000a81548173ffffffffffffffffffffffffffffffffffffffff021916908373ffffffffffffffffffffffffffffffffffffffff16021790555060208201518160010160006101000a81548173ffffffffffffffffffffffffffffffffffffffff021916908373ffffffffffffffffffffffffffffffffffffffff1602179055509050503373ffffffffffffffffffffffffffffffffffffffff167f70f2ff07e8136617cdfb0433423063c9dd697c507560d7860cce09fa86874a12836040516102d091906108f1565b60405180910390a25050565b6000818051602081018201805184825260208301602085012081835280955050505050506000915090508060000160009054906101000a900473ffffffffffffffffffffffffffffffffffffffff16908060010160009054906101000a900473ffffffffffffffffffffffffffffffffffffffff16905082565b600080826040516103679190610824565b908152602001604051809103902060010160009054906101000a900473ffffffffffffffffffffffffffffffffffffffff169050919050565b816000816040516103b19190610824565b908152602001604051809103902060000160009054906101000a900473ffffffffffffffffffffffffffffffffffffffff1673ffffffffffffffffffffffffffffffffffffffff163373ffffffffffffffffffffffffffffffffffffffff1614610450576040517f08c379a00000000000000000000000000000000000000000000000000000000081526004016104479061095f565b60405180910390fd5b816000846040516104619190610824565b908152602001604051809103902060010160006101000a81548173ffffffffffffffffffffffffffffffffffffffff021916908373ffffffffffffffffffffffffffffffffffffffff1602179055508173ffffffffffffffffffffffffffffffffffffffff167f868f5f914e26b486c50b15494d56c6b2f2f17f6514343909bd36a034c19452cc846040516104f691906108f1565b60405180910390a2505050565b6000604051905090565b600080fd5b600080fd5b600080fd5b600080fd5b6000601f19601f8301169050919050565b7f4e487b7100000000000000000000000000000000000000000000000000000000600052604160045260246000fd5b61056a82610521565b810181811067ffffffffffffffff8211171561058957610588610532565b5b80604052505050565b600061059c610503565b90506105a88282610561565b919050565b600067ffffffffffffffff8211156105c8576105c7610532565b5b6105d182610521565b9050602081019050919050565b82818337600083830152505050565b60006106006105fb846105ad565b610592565b90508281526020810184848401111561061c5761061b61051c565b5b6106278482856105de565b509392505050565b600082601f83011261064457610643610517565b5b81356106548482602086016105ed565b91505092915050565b600073ffffffffffffffffffffffffffffffffffffffff82169050919050565b60006106888261065d565b9050919050565b6106988161067d565b81146106a357600080fd5b50565b6000813590506106b58161068f565b92915050565b600080604083850312156106d2576106d161050d565b5b600083013567ffffffffffffffff8111156106f0576106ef610512565b5b6106fc8582860161062f565b925050602061070d858286016106a6565b9150509250929050565b60006020828403121561072d5761072c61050d565b5b600082013567ffffffffffffffff81111561074b5761074a610512565b5b6107578482850161062f565b91505092915050565b6107698161067d565b82525050565b60006040820190506107846000830185610760565b6107916020830184610760565b9392505050565b60006020820190506107ad6000830184610760565b92915050565b600081519050919050565b600081905092915050565b60005b838110156107e75780820151818401526020810190506107cc565b60008484015250505050565b60006107fe826107b3565b61080881856107be565b93506108188185602086016107c9565b80840191505092915050565b600061083082846107f3565b915081905092915050565b600082825260208201905092915050565b7f446f6d61696e20616c7265616479207265676973746572656400000000000000600082015250565b600061088260198361083b565b915061088d8261084c565b602082019050919050565b600060208201905081810360008301526108b181610875565b9050919050565b60006108c3826107b3565b6108cd818561083b565b93506108dd8185602086016107c9565b6108e681610521565b840191505092915050565b6000602082019050818103600083015261090b81846108b8565b905092915050565b7f4e6f742074686520646f6d61696e206f776e6572000000000000000000000000600082015250565b600061094960148361083b565b915061095482610913565b602082019050919050565b600060208201905081810360008301526109788161093c565b905091905056fea26469706673582212200e8a216181b5d18f67bbc6c8257601e6336d09e135473637f79f41740cc557cb64736f6c63430008150033",
  "linkReferences": {},
  "deployedLinkReferences": {}
}